{"abi":[{"type":"fallback","stateMutability":"payable"},{"type":"function","name":"initialize","inputs":[{"name":"_logic","type":"address","internalType":"address"},{"name":"_data","type":"bytes","internalType":"bytes"}],"outputs":[],"stateMutability":"payable"},{"type":"event","name":"Upgraded","inputs":[{"name":"implementation","type":"address","indexed":true,"internalType":"address"}],"anonymous":false}],"bytecode":{"object":"0x608060405234801561001057600080fd5b50610447806100206000396000f3fe6080604052600436106100225760003560e01c8063d1f578941461002d57610023565b5b61002b610108565b005b6101066004803603604081101561004357600080fd5b81019080803573ffffffffffffffffffffffffffffffffffffffff1690602001909291908035906020019064010000000081111561008057600080fd5b82018360208201111561009257600080fd5b803590602001918460018302840111640100000000831117156100b457600080fd5b91908080601f016020809104026020016040519081016040528093929190818152602001838380828437600081840152601f19601f820116905080830192505050505050509192919290505050610122565b005b6101106102a5565b61012061011b6102a7565b6102d8565b565b600073ffffffffffffffffffffffffffffffffffffffff166101426102a7565b73ffffffffffffffffffffffffffffffffffffffff161461016257600080fd5b600160405180807f656970313936372e70726f78792e696d706c656d656e746174696f6e00000000815250601c019050604051809103902060001c0360001b7f360894a13ba1a3210667c828492db98dca3e2076cc3735a920a3ca505d382bbc60001b146101cc57fe5b6101d5826102fe565b6000815111156102a15760008273ffffffffffffffffffffffffffffffffffffffff16826040518082805190602001908083835b6020831061022c5780518252602082019150602081019050602083039250610209565b6001836020036101000a038019825116818451168082178552505050505050905001915050600060405180830381855af49150503d806000811461028c576040519150601f19603f3d011682016040523d82523d6000602084013e610291565b606091505b505090508061029f57600080fd5b505b5050565b565b6000807f360894a13ba1a3210667c828492db98dca3e2076cc3735a920a3ca505d382bbc60001b9050805491505090565b3660008037600080366000845af43d6000803e80600081146102f9573d6000f35b3d6000fd5b6103078161038b565b61035c576040517f08c379a000000000000000000000000000000000000000000000000000000000815260040180806020018281038252603b8152602001806103d7603b913960400191505060405180910390fd5b60007f360894a13ba1a3210667c828492db98dca3e2076cc3735a920a3ca505d382bbc60001b90508181555050565b60008060007fc5d2460186f7233c927e7db2dcc703c0e500b653ca82273b7bfad8045d85a47060001b9050833f91508082141580156103cd57506000801b8214155b9250505091905056fe43616e6e6f742073657420612070726f787920696d706c656d656e746174696f6e20746f2061206e6f6e2d636f6e74726163742061646472657373a264697066735822122093dae8d273cf925b0118da3841c99d0fcfb8935f46d5a71235e4e038a24f4e1864736f6c634300060a0033","linkReferences":{}},"methodIdentifiers":{"initialize(address,bytes)":"d1f57894"},"id":9}