{"abi":[{"type":"function","name":"onTransfer","inputs":[{"name":"from","type":"address","internalType":"address"},{"name":"to","type":"address","internalType":"address"},{"name":"amount","type":"uint256","internalType":"uint256"}],"outputs":[],"stateMutability":"nonpayable"},{"type":"event","name":"MockHookEvent","inputs":[],"anonymous":false}],"bytecode":{"object":"0x608060405234801561001057600080fd5b5060ff8061001f6000396000f3fe6080604052348015600f57600080fd5b506004361060285760003560e01c80634a39314914602d575b600080fd5b609660048036036060811015604157600080fd5b81019080803573ffffffffffffffffffffffffffffffffffffffff169060200190929190803573ffffffffffffffffffffffffffffffffffffffff169060200190929190803590602001909291905050506098565b005b7f34250cbfa6d218c1d0a9b5950b60dac352f03d00642722e501cbc86d1ea8130160405160405180910390a150505056fea2646970667358221220058de2457318c18964c321626406f0d93d4dc815931ed4b80b6ec9dcbe03812464736f6c634300060a0033","linkReferences":{}},"methodIdentifiers":{"onTransfer(address,address,uint256)":"4a393149"},"id":17}