{"abi":[{"type":"constructor","inputs":[{"name":"aave","type":"address","internalType":"contract IERC20"},{"name":"lend","type":"address","internalType":"contract IERC20"},{"name":"lendAaveRatio","type":"uint256","internalType":"uint256"}],"stateMutability":"nonpayable"},{"type":"function","name":"AAVE","inputs":[],"outputs":[{"name":"","type":"address","internalType":"contract IERC20"}],"stateMutability":"view"},{"type":"function","name":"LEND","inputs":[],"outputs":[{"name":"","type":"address","internalType":"contract IERC20"}],"stateMutability":"view"},{"type":"function","name":"LEND_AAVE_RATIO","inputs":[],"outputs":[{"name":"","type":"uint256","internalType":"uint256"}],"stateMutability":"view"},{"type":"function","name":"REVISION","inputs":[],"outputs":[{"name":"","type":"uint256","internalType":"uint256"}],"stateMutability":"view"},{"type":"function","name":"_totalLendMigrated","inputs":[],"outputs":[{"name":"","type":"uint256","internalType":"uint256"}],"stateMutability":"view"},{"type":"function","name":"initialize","inputs":[],"outputs":[],"stateMutability":"nonpayable"},{"type":"function","name":"migrateFromLEND","inputs":[{"name":"amount","type":"uint256","internalType":"uint256"}],"outputs":[],"stateMutability":"nonpayable"},{"type":"function","name":"migrationStarted","inputs":[],"outputs":[{"name":"","type":"bool","internalType":"bool"}],"stateMutability":"view"},{"type":"event","name":"LendMigrated","inputs":[{"name":"sender","type":"address","indexed":true,"internalType":"address"},{"name":"amount","type":"uint256","indexed":true,"internalType":"uint256"}],"anonymous":false}],"bytecode":{"object":"0x60e06040526000805534801561001457600080fd5b506040516108ea3803806108ea8339818101604052606081101561003757600080fd5b810190808051906020019092919080519060200190929190805190602001909291905050508273ffffffffffffffffffffffffffffffffffffffff1660808173ffffffffffffffffffffffffffffffffffffffff1660601b815250508173ffffffffffffffffffffffffffffffffffffffff1660a08173ffffffffffffffffffffffffffffffffffffffff1660601b815250508060c0818152505050505060805160601c60a05160601c60c0516107d4610116600039806103e5528061050152508061028e52806105ad5250806101d752806103a552506107d46000f3fe608060405234801561001057600080fd5b50600436106100885760003560e01c80638129fc1c1161005b5780638129fc1c14610145578063abb76be81461014f578063dde43cba1461016d578063f301e7811461018b57610088565b806348ccda3c1461008d578063682356c0146100d7578063685cda02146101055780637c6e94e314610123575b600080fd5b6100956101d5565b604051808273ffffffffffffffffffffffffffffffffffffffff1673ffffffffffffffffffffffffffffffffffffffff16815260200191505060405180910390f35b610103600480360360208110156100ed57600080fd5b81019080803590602001909291905050506101f9565b005b61010d6104ff565b6040518082815260200191505060405180910390f35b61012b610523565b604051808215151515815260200191505060405180910390f35b61014d610530565b005b6101576105a0565b6040518082815260200191505060405180910390f35b6101756105a6565b6040518082815260200191505060405180910390f35b6101936105ab565b604051808273ffffffffffffffffffffffffffffffffffffffff1673ffffffffffffffffffffffffffffffffffffffff16815260200191505060405180910390f35b7f000000000000000000000000000000000000000000000000000000000000000081565b600080541415610271576040517f08c379a00000000000000000000000000000000000000000000000000000000081526004018080602001828103825260158152602001807f4d4947524154494f4e5f4e4f545f53544152544544000000000000000000000081525060200191505060405180910390fd5b610286816033546105cf90919063ffffffff16565b6033819055507f000000000000000000000000000000000000000000000000000000000000000073ffffffffffffffffffffffffffffffffffffffff166323b872dd3330846040518463ffffffff1660e01b8152600401808473ffffffffffffffffffffffffffffffffffffffff1673ffffffffffffffffffffffffffffffffffffffff1681526020018373ffffffffffffffffffffffffffffffffffffffff1673ffffffffffffffffffffffffffffffffffffffff1681526020018281526020019350505050602060405180830381600087803b15801561036757600080fd5b505af115801561037b573d6000803e3d6000fd5b505050506040513d602081101561039157600080fd5b8101908080519060200190929190505050507f000000000000000000000000000000000000000000000000000000000000000073ffffffffffffffffffffffffffffffffffffffff1663a9059cbb336104137f00000000000000000000000000000000000000000000000000000000000000008561065790919063ffffffff16565b6040518363ffffffff1660e01b8152600401808373ffffffffffffffffffffffffffffffffffffffff1673ffffffffffffffffffffffffffffffffffffffff16815260200182815260200192505050602060405180830381600087803b15801561047c57600080fd5b505af1158015610490573d6000803e3d6000fd5b505050506040513d60208110156104a657600080fd5b810190808051906020019092919050505050803373ffffffffffffffffffffffffffffffffffffffff167f5c5c7a8e729fa9bfdd1ecad2e8f7f3db1d29acf43c1e6036f34fd68621d15c8160405160405180910390a350565b7f000000000000000000000000000000000000000000000000000000000000000081565b6000806000541415905090565b600061053a6106a1565b90506000548111610596576040517f08c379a000000000000000000000000000000000000000000000000000000000815260040180806020018281038252602e815260200180610771602e913960400191505060405180910390fd5b8060008190555050565b60335481565b600181565b7f000000000000000000000000000000000000000000000000000000000000000081565b60008082840190508381101561064d576040517f08c379a000000000000000000000000000000000000000000000000000000000815260040180806020018281038252601b8152602001807f536166654d6174683a206164646974696f6e206f766572666c6f77000000000081525060200191505060405180910390fd5b8091505092915050565b600061069983836040518060400160405280601a81526020017f536166654d6174683a206469766973696f6e206279207a65726f0000000000008152506106aa565b905092915050565b60006001905090565b60008083118290610756576040517f08c379a00000000000000000000000000000000000000000000000000000000081526004018080602001828103825283818151815260200191508051906020019080838360005b8381101561071b578082015181840152602081019050610700565b50505050905090810190601f1680156107485780820380516001836020036101000a031916815260200191505b509250505060405180910390fd5b50600083858161076257fe5b04905080915050939250505056fe436f6e747261637420696e7374616e63652068617320616c7265616479206265656e20696e697469616c697a6564a26469706673582212205cf2263c65cf2b2b18b9e564d7ab9522fa502b23d06bfc21559382bd9c3253d764736f6c634300060a0033","linkReferences":{}},"methodIdentifiers":{"AAVE()":"48ccda3c","LEND()":"f301e781","LEND_AAVE_RATIO()":"685cda02","REVISION()":"dde43cba","_totalLendMigrated()":"abb76be8","initialize()":"8129fc1c","migrateFromLEND(uint256)":"682356c0","migrationStarted()":"7c6e94e3"},"id":14}